:020000040800F2
:100000000000022011540008590600085B06000891
:100010005D0600085F060008610600080000000099
:10002000000000000000000000000000630600085F
:100030006506000800000000670600086906000861
:1000400065540008655400086554000865540008AC
:10005000655400086554000865540008655400089C
:10006000655400086554000865540008655400088C
:10007000655400086554000865540008655400087C
:10008000655400086554000865540008655400086C
:10009000655400086554000865540008655400085C
:1000A000655400086554000865540008655400084C
:1000B000655400086554000865540008655400083C
:1000C000655400086554000865540008655400082C
:1000D000655400086554000865540008655400081C
:1000E00065540008655400080000000065540008CD
:1000F00065540008655400086554000865540008FC
:1001000065540008655400086554000865540008EB
:1001100065540008655400086554000865540008DB
:1001200065540008655400086554000865540008CB
:1001300065540008655400086554000865540008BB
:1001400000000000000000000000000000000000AF
:10015000655400086554000865540008655400089B
:10016000655400086554000865540008655400088B
:10017000655400087106000865540008000000007E
:10018000655400086554000865540008655400086B
:10019000655400086554000865540008655400085B
:1001A000655400086554000865540008000000000C
:1001B000655400086554000865540008655400083B
:1001C00065540008655400080000000000000000AD
:1001D000000000000000000065540008000000005E
:1001E000000000000000000000000000000000000F
:1001F000000000000000000065540008655400087D
:1002000065540008655400080000000065540008AB
:1002100065540008655400086554000865540008DA
:10022000655400080000000065540008000000004C
:10023000655400086554000800000000655400087B
:1002400065540008655400086554000865540008AA
:10025000655400086554000865540008655400089A
:10026000655400086554000865540008655400088A
:10027000655400086554000865540008000000003B
:10028000655400086554000865540008655400086A
:1002900000000000655400086554000800000000DC
:1002A000000000006554000865540008655400080B
:1002B000655400086554000865540008655400083A
:0C02C000655400086554000865540008EF
:1002D00001F0FF01102A2BDB10F0070F08D010F8F7
:1002E000013B013A8B422DD010F0070F42B3F6D1FB
:1002F000F0B441EA012141EA014122F007047FF014
:1003000000070023F0E80256083C85EA010586EA6A
:10031000010685FA47F5A3FA87F586FA47F6A5FAA6
:1003200087F68EB9EED1F0BC01F0FF0102F00702B2
:1003300032B110F8013B013A83EA010313B1F8D15D
:100340000020704701387047002D06BF354603383E
:10035000073815F0010F07D1013015F4807F02BF77
:10036000013015F4C03F0130F0BC0138704700BFC8
:100370000348044B834202D0034B03B11847704734
:100380005C0100205C010020000000000548064BD5
:100390001B1AD90F01EBA301491002D0034B03B183
:1003A000184770475C0100205C010020000000003D
:1003B00010B5064C237843B9FFF7DAFF044B13B1AD
:1003C0000448AFF300800123237010BD5C010020BE
:1003D000000000004463000808B5054B1BB1054947
:1003E0000548AFF30080BDE80840FFF7CFBF00BF6E
:1003F00000000000600100204463000830B585B0B3
:100400000024009401940294039403F0E3FD01237B
:100410008DF800308DF8014001941F228DF80820DE
:1004200087228DF809208DF80A408DF80B408DF851
:100430000C308DF80D308DF80E408DF80F40684669
:1004400003F0E6FD042003F0D3FD05B030BD00004D
:1004500070B58AB005AD00240594069407940894FD
:100460000994214BD3F8E02042F08002C3F8E02049
:10047000D3F8E02002F080020192019AD3F8E02044
:1004800042F04002C3F8E020D3F8E02002F040023E
:100490000292029AD3F8E02042F00102C3F8E02071
:1004A000D3F8E02002F001020392039AD3F8E0208F
:1004B00042F00202C3F8E020D3F8E03003F0020378
:1004C0000493049B094E01228021304603F0C2FCB4
:1004D0008023059301230693079408942946304608
:1004E00003F09EFB0AB070BD004402580018025889
:1004F00072B6FEE700B59DB04C22002109A805F0B8
:10050000D5F82022002101A805F0D0F8022003F040
:10051000B1FC00230093204B9A6922F440429A6177
:100520009B6903F440430093009B1B4B9B6913F4AE
:10053000005FFAD0212309934FF480330A930122FC
:100540000F9202231293139314932C211591169258
:10055000179318930C23199300231A931B9309A83C
:1005600001F0C2FF98B93F23019303210291039048
:10057000082304934023059306934FF48062079267
:10058000089301A802F09CFB18B91DB000BDFFF74D
:10059000AFFFFFF7ADFF00BF0048025808B5FFF7F7
:1005A0002DFF2B4B5B6913F4003F13D1BFF34F8F2B
:1005B000BFF36F8F264B0022C3F85022BFF34F8F3B
:1005C000BFF36F8F5A6942F400325A61BFF34F8F05
:1005D000BFF36F8F1E4B5B6913F4803F27D11C4B19
:1005E0000022C3F88420BFF34F8FD3F880C0CCF330
:1005F0004E3000E01846CCF3C90243F6E07303EA3C
:10060000401343EA82731249C1F86032013AB2F1F1
:10061000FF3FF2D1431E0028ECD1BFF34F8F4B694F
:1006200043F480334B61BFF34F8FBFF36F8F03F001
:1006300043FDFFF75FFFFFF70BFF00F033F880216A
:10064000044803F00DFC4FF47A7003F077FDF6E7F1
:1006500000ED00E000180258FEE7FEE7FEE7FEE7C7
:10066000FEE770477047704708B503F055FD08BDB9
:1006700008B5024800F0AAFD08BD00BF74180020AC
:1006800082B0074BD3F8F42042F00202C3F8F42002
:10069000D3F8F43003F002030193019B02B07047DA
:1006A0000044025808B501221049114803F0CEFD5C
:1006B00080B910490E4803F0EDFD70B90E490C48A1
:1006C00004F015FE60B90A4803F012FE58B903F0B1
:1006D000FBFB08BDFFF70CFFEBE7FFF709FFEDE7BA
:1006E000FFF706FFEFE7FFF703FFF0E73400002016
:1006F00078010020BC0000205400002012230B8051
:10070000004870472000002004230B8000487047F9
:100710001C000020002393421DD200B510E00CF114
:10072000370C01F813C000014FEA430C0CF1010C27
:100730004FF0000E01F80CE00133DBB2934209D216
:100740004FEA107CB0F1204FE9D20CF1300C01F8E7
:1007500013C0E8E700BD70470B4BD3F80008D3F88F
:100760000428D3F80838C01800D1704710B51446D3
:1007700008220649FFF7CEFF0422044B03F11001C3
:100780002046FFF7C7FF10BD00E0F11F0200002068
:1007900008B51A230B80FFF7DFFF014808BD00BF33
:1007A0000000002008B50A4628B90549054804F0AC
:1007B00019FB034808BD0249024804F013FBF8E79F
:1007C000540400205C63000810B50A46034C21461F
:1007D000034804F007FB204610BD00BF540400206E
:1007E0007463000808B50A4628B90549054804F0AD
:1007F000F9FA034808BD0249024804F0F3FAF8E7A1
:10080000540400208863000808B50A4628B9054941
:10081000054804F0E7FA034808BD0249024804F01D
:10082000E1FAF8E7540400209463000800207047C0
:10083000002070470020704710B50146044C204648
:1008400004F06EFD204604F077FD002010BD00BFCF
:100850007801002010B5064C00220649204604F01D
:1008600051FD0549204604F05BFD002010BD00BF8E
:100870007801002054060020540E002010B5B6B0B8
:100880000446002131913291339134913591B8224F
:1008900002A804F00BFF2268204B9A4201D036B028
:1008A00010BD4FF480220023CDE902234FF4401302
:1008B000239302A802F078FC68BB03F005FB184CF8
:1008C000D4F8E03043F00103C4F8E030D4F8E0306D
:1008D00003F001030093009B4FF400733193002356
:1008E0003293339331A90F4803F09AF9D4F8D830F2
:1008F00043F00073C4F8D830D4F8D83003F0007354
:100900000193019B002211464D2003F03BFB4D203B
:1009100003F048FBC3E7FFF7EBFDCEE70000044020
:10092000004402580000025808B500F29C41D0F87B
:10093000E00403F0F3FC08BD08B501EBC10300EBD4
:100940008303D3F86022D0F8E00403F0B6FD08BDBD
:1009500008B501EBC10300EB83031A6AD0F8E00489
:1009600003F00EFE08BD08B5D0F8E00403F053FD17
:1009700008BD10B50446C17911B1022909D1012180
:10098000D4F8E00403F02AFDD4F8E00403F0F2FC0C
:1009900010BDFFF7ADFD0121F2E7000010B50446E0
:1009A000D0F8E00403F01DFD2268D2F8003E43F0C9
:1009B0000103C2F8003EE37A23B1034A136943F00E
:1009C0000603136110BD00BF00ED00E008B5D0F8CC
:1009D000E00403F014FD08BD08B5D0F8E00403F00E
:1009E00040FD08BD08B5D0F8E00403F024FD08BDC3
:1009F00008B5D0F8E00403F04AFD08BD08B5D0F80A
:100A0000E00403F046FD08BD08B50378012B01D0D2
:100A1000002008BD164BC3F8E004C0F8C832154AE0
:100A20001A6009221A710221D97100229A71597231
:100A30009A72DA721A7301219973DA731A7418466A
:100A400000F0F1F880B94FF40071094800F007FF99
:100A500080220021064800F0DDFE4FF4BA72012129
:100A6000034800F0D7FED3E7FFF742FDEBE700BFF6
:100A70007418002000000440D0F8C83211F0800F34
:100A800008D101F07F0101EBC10103EB810393F871
:100A90005602704701F07F0101EBC10103EB8103B6
:100AA000987D704708B5D0F8C80200F0CAFA08BDB2
:100AB00000487047541600207047022804D005D81B
:100AC00008B103207047704701207047032070472A
:100AD00008B5D0F8C80200F02AF9FFF7EEFF08BD0C
:100AE00008B594461A466346D0F8C80200F001FAE9
:100AF000FFF7E3FF08BD08B5D0F8C80200F044FADC
:100B0000FFF7DBFF08BD08B5D0F8C80200F0C7FA50
:100B1000FFF7D3FF08BD08B5D0F8C80200F002FB0C
:100B2000FFF7CBFF08BD08B5D0F8C80200F0CEF93A
:100B3000FFF7C3FF08BD08B5D0F8C80200F08AFA75
:100B4000FFF7BBFF08BD08B5D0F8C80200F054FAA3
:100B5000FFF7B3FF08BD2DE9F04383B0D0F8008064
:100B600001EBC10300EB83039A6A5B6A9A4254D893
:100B700007460C469B1A01EBC10200EB8202D269C8
:100B80009A4200D31A4602F103094FEA990915E087
:100B900006F103094FEA990904EBC40507EB850543
:100BA000296ABB790093B3B2E2B2404601F057FA2A
:100BB0002B6A33442B62AB6A3344AB6208EB4413B9
:100BC00003F510639B699BB24B4512D304EBC4033E
:100BD00007EB83039A6A5B6A9A420AD24BB19B1A6B
:100BE00004EBC40207EB8202D6699E42D0D31E46B4
:100BF000CEE704EBC40307EB83077A6ABB6A9A4229
:100C00000FD804F00F040122A240D8F8343823EAA8
:100C10000203C8F83438002000E0012003B0BDE82A
:100C2000F0830020FAE730B583B000287CD004467A
:100C300090F89534B3B1032384F89534206800F01C
:100C400023FF237C8DF80030231D0ECB206800F09D
:100C50004DFE60B1022384F8953401231D462846D9
:100C600003B030BD80F89434FFF708FEE3E7014697
:100C7000206801F0CBFB0246B8B9034620799842C0
:100C800019D903EBC30104EB8101012048750B75F1
:100C9000CB8500200876C861086203EBC30104EB32
:100CA000810148620133DBB2E8E7022384F895341E
:100CB00001231D46D3E7904217D902EBC20304EB90
:100CC0008303002183F8551283F8542283F85812C5
:100CD000C3F85C12C3F8601202EBC20304EB830397
:100CE000C3F864120132D2B2E5E7237C8DF80030FC
:100CF000231D0ECB206800F01DFF054650B960741F
:100D0000012384F89534237B012B09D0206801F05E
:100D10003CFBA4E7022384F8953401231D469EE79B
:100D2000204600F0A1FDF1E701231D4697E7036887
:100D300090F89424012A1AD010B50446012280F8B4
:100D40009424DA6812F0400F02D0427B012A09D0C5
:100D5000206800F093FE206801F009FB002084F871
:100D6000940410BD9A6B42F480329A63F0E702203B
:100D70007047000038B504460D460068D0F840C002
:100D800000EB411303F530639A68A179012911D072
:100D900038498C4556D03DB905EBC50304EB8303B8
:100DA000D3F86432002B5ED0E9B22046FFF7C4FDD1
:100DB000002038BD12F0080F09D02F498C45F7D913
:100DC00012F4004FF4D04FF400429A60F0E712F0B2
:100DD000200F02D020229A60EAE712F0280FE7D114
:100DE00025498C4506D912F4004F03D04FF4004238
:100DF0009A60DDE705EBC50204EB8202D2F87412BB
:100E00001B69C3F31203CB1AC2F868327DB905EB34
:100E1000C50204EB8202D2F864226AB105EBC50276
:100E200004EB8202D2F860121944C2F86012E9B2EF
:100E30002046FFF781FDBBE704F29C42012101F04F
:100E400025FBF4E712F4004F03D04FF400429A6000
:100E5000AEE712F0200F01D020229A60E9B22046BE
:100E6000FFF76AFDA4E704F29C42194601F00EFB6D
:100E70009AE700BF0A31544F0A30544F38B5044640
:100E800003681D6C03EB4113D3F8081B0E4A95420F
:100E900007D903F5306311F4004F02D04FF400423C
:100EA0009A602046FFF740FD074B9D4202D9A37987
:100EB000012B01D0002038BD04F29C4201212068A2
:100EC00001F0E4FAF6E700BF0A30544F90F894348A
:100ED000012B0CD010B50446012380F894344174E2
:100EE000006801F034FA002084F8940410BD022058
:100EF000704710B50446084611F0800F2ED101F05E
:100F00000F0E0EEBCE0C4FEA8C0C0CF5147CA444A7
:100F10000CF104010EEBCE0E04EB8E0E4FF0000C24
:100F20008EF855C200F00F0C81F800C0C2F30A021F
:100F30008A600B714A780AB1A1F81AC0022B1ED040
:100F400094F89434012B1DD0012384F89434206844
:100F500000F0CCFE002084F8940410BD01F00F0CCA
:100F60000CEBCC0189001031214404310CEBCC0C8A
:100F700004EB8C0C4FF0010E8CF815E0D2E7002347
:100F80004B71DDE70220E8E710B504460A4611F090
:100F9000800F20D101F00F0000EBC0039B0003F590
:100FA00014732344191D00EBC00004EB80000023E0
:100FB00080F8553202F00F020A7094F89434012B35
:100FC00018D0012384F89434206800F0DFFE00205C
:100FD00084F8940410BD01F00F0000EBC0039B00E7
:100FE00010332344191D00EBC00004EB80000123E3
:100FF0004375DFE70220EDE708B501F00F0C0CEBBD
:10100000CC01890001F51471014404310CEBCC0EC4
:1010100000EB8E0ECEF86022CEF864320023CEF8BC
:1010200068328EF855328EF854C28379012B05D080
:101030001A46006801F02AF8002008BDCEF8702298
:10104000F6E701F00F0101EBC10100EB8100D0F8E0
:101050006802704708B501F00F0C0CEBCC01890059
:101060001031014404310CEBCC0E00EB8E0ECEF8A7
:101070002020CEF824300023CEF8283001238EF82B
:1010800015308EF814C08379012B05D01A460068FC
:1010900000F0FCFF002008BDCEF83020F6E738B5A0
:1010A00001F00F050279AA4238D304460B4611F02D
:1010B000800F1FD101EBC101890001F514710144BA
:1010C000043103EBC30300EB8303002283F85522B2
:1010D00001238B700D7094F89434012B20D00123E0
:1010E00084F89434206800F05FFF85B1002084F814
:1010F000940438BD05EBC501890010310144043169
:1011000005EBC50300EB830301225A75E0E704F207
:101110009C42A179206801F0B9F9E7E70120E8E7EE
:101120000220E6E701F00F0302799A4230D310B5AE
:10113000044611F0800F1ED103EBC301890001F5B5
:1011400014710144043103EBC30200EB820200205E
:1011500082F8550200228A700B7094F89434012BA7
:1011600018D0012384F89434206800F04AFF00204E
:1011700084F8940410BD03EBC301890010310144CD
:10118000043103EBC30200EB820201205075E1E75A
:10119000012070470220EDE708B511F0800F0CD157
:1011A00001F00F0101EBC101890001F51471014447
:1011B0000431006800F05CFE08BD01F00F0101EB96
:1011C000C1018900103101440431F2E72DE9F04FEB
:1011D00083B004460568284601F014F910B103B045
:1011E000BDE8F08F8046206801F0DDF80028F6D0D9
:1011F00005F500639B46D5F80838C3F30D23C4F802
:10120000D434206801F0CFF810F0020F04D0226827
:10121000536903F002035361206801F0C4F810F031
:10122000100F16D02268936923F0100393612E6A81
:1012300006F00F031F4606F4F013B3F5802F6BD0B2
:10124000B3F5402F00F08E802268936943F01003BD
:101250009361206801F0A7F810F4002F40F0988007
:10126000206801F0A0F810F4802F40F0028120687F
:1012700001F099F80028C0F28581206801F093F808
:1012800010F4006F0AD0DBF8083013F0010F40F0C3
:1012900093812268536903F400635361206801F06D
:1012A00082F810F0006F15D02268536903F00063D4
:1012B000536194F8CC34002B40F08281012184F8F2
:1012C000CC1423685B6DC3F38303C4F8D034204689
:1012D00000F0DEFA206801F066F810F4805F40F05C
:1012E0007381206801F05FF810F4005F40F0CB815B
:1012F000206801F058F810F0080F40F0DC812068F9
:1013000001F051F810F0800F00F0F981AB6923F083
:101310008003AB610123D8E147F6F0731E4293D0FE
:1013200033090093FA00019207EBC70304EB830132
:10133000C6F30A120E46D1F86012284600F0E4FF08
:10134000D6F86022009BC3F30A031A44C6F8602251
:10135000D6F86812019A3A4404EB82020B44C2F8B0
:10136000683271E7082204F29C41284600F0CCFF65
:1013700007EBC70304EB8303D3F86812C6F30A1321
:1013800007EBC70204EB82020B44C2F868325BE74A
:10139000206801F00CF80646474635E0394605EB73
:1013A00047130122C3F8082B2046FFF7E3FC3BE07C
:1013B000394605EB47130822C3F8082B2046FFF7F0
:1013C0005DFD34E007EBC70304EB830393F857326A
:1013D000012B42D005EB47130222C3F8082B19F06A
:1013E000200F04D005EB47132022C3F8082B19F473
:1013F000005F05D005EB47134FF40052C3F8082BEC
:101400003B4601331F467608002E3FF429AF16F005
:10141000010FF5D0FBB29A461946206800F0D7FFBD
:10142000814610F0010FB9D119F0080FC0D119F0A1
:10143000100F04D005EB47131022C3F8082B19F046
:10144000020FCCD06B6913F0800FBBD0DBF80430F7
:1014500043F48063CBF80430B4E707EBC70304EB35
:101460008303002283F8572251462046FFF7B4FA3F
:10147000B0E7206800F0A3FF0646C14625E00099CA
:101480002046FFF765FA1AF0080F04D005EB491360
:101490000822C3F808291AF0100F04D005EB4913ED
:1014A0001022C3F808291AF0400F04D005EB4913A5
:1014B0004022C3F808291AF0020F42D11AF0800F17
:1014C0005BD14B46013399467608002E3FF4CFAEF0
:1014D00016F0010FF5D05FFA89F3009319462068E2
:1014E00000F07EFF824610F0010FCCD0484609F094
:1014F0000F02012101FA02F2DBF8343023EA020381
:10150000CBF8343005EB4913C3F80819A3798B42A3
:10151000B5D109EBC90304EB83031A6AD9690A44FC
:101520001A620028ABD109EBC90304EB83035B6AA1
:10153000002BA4D104F29C420121206800F0A6FFF8
:101540009DE74946284600F0A5FA09EBC90304EBDC
:101550008303DB7D012B05D005EB49130222C3F881
:101560000829ABE709EBC90304EB83030022DA7512
:1015700000992046FFF736FAEEE749462046FFF786
:10158000EAFA9EE7DBF8043023F00103CBF80430DD
:1015900094F8CC34012B08D02046FFF717FA2268C4
:1015A000536903F00043536167E6002184F8CC14CB
:1015B000204600F06DF9F2E72046FFF7EFF968E604
:1015C0002046FFF7EBF985E6DBF8043023F0010352
:1015D000CBF804301021206800F05CFA1CE0404693
:1015E00005EB48134FF67F31C3F80819D3F80029EB
:1015F00022F40012C3F80029C3F8081BD3F8002B0B
:1016000022F40012C3F8002BD3F8002B42F0006242
:10161000C3F8002B431C984623794345DFD8DBF8F9
:101620001C3043F00113CBF81C30E37BEBB1DBF84B
:10163000843043F00B03CBF88430DBF8443043F0C4
:101640000B03CBF84430D5F8003823F4FE63C5F81B
:10165000003804F29C42A179206800F017FF22684C
:10166000536903F4805353613BE6DBF8142042F2E4
:101670002B031343CBF81430DBF8103043F00B038B
:10168000CBF81030DFE7206800F0F1FE206800F0B2
:101690001DFBE071266801F05DFC0146E2793046F1
:1016A00000F07AF92046FFF764F92268536903F4E1
:1016B000005353611CE62046FFF755F92268536931
:1016C00003F0080353611AE6013322799A4216D9CE
:1016D00003EBC30204EB820292F85722012AF3D1F2
:1016E00005EB4312D2F8001B41F00061C2F8001B69
:1016F000D2F8001B41F08041C2F8001BE4E72068EB
:1017000000F051FE10F4801F25D1206800F04BFE40
:1017100010F4001F5AD0012326E001362379B3428A
:101720001BD905EB4613D3F8002906EBC60304EBDF
:1017300083031B7E012BF0D1002AEEDA06EBC603F1
:1017400004EB83030122DA7566F07F01C9B22046FB
:10175000FFF722FDE1E70126E0E72268536903F481
:1017600080135361D1E7013322799A4229D905EBDD
:101770004312D2F8001B03EBC30204EB820292F87F
:101780005822012AEFD10029EDDAD4F8D42482EAD4
:10179000114212F0010FE6D103EBC30204EB820207
:1017A000012182F85712AA6942F08002AA616A698F
:1017B00012F0800FD7D1DBF8043043F40073CBF87C
:1017C00004302268536903F400135361206800F069
:1017D000EAFD10F0804F10D1206800F0E4FD10F019
:1017E000040F3FF4FCAC23685D6815F0040F0DD1C5
:1017F000226853682B435360F1E42046FFF7F8F862
:101800002268536903F080435361E5E72046FFF700
:10181000F5F8EDE700B596460268506A21B940EA4E
:101820000E409062002000BD8C46936A00EB13408E
:10183000002308E003F1400102EB8101496800EB5D
:1018400011400133DBB20CF1FF318B42F2D340EA9D
:101850000E400CF13F0102EB81025060E2E70368A9
:101860005962002070470000034602680121C0F859
:10187000D814002083F8CC04936943F0006393618B
:10188000516D024B0B435365704700BF03000010BE
:10189000704782B000230193019B01330193019BA8
:1018A000B3F1706F1CD80369002BF5DA0A2301939A
:1018B00002E0019B013B0193019B002BF9D10369DD
:1018C00043F001030361019B01330193019BB3F1D9
:1018D000706F08D8036913F0010FF4D1002000E005
:1018E000032002B070470320FBE7000084B010B56E
:1018F000044603A880E80E009DF81130012B1FD18B
:10190000A36B23F48033A363E268214B1340E360AD
:10191000E36823F44013E3609DF81830012B0AD0EC
:101920002046FFF7B6FF9DF80E30012B1CD0BDE816
:10193000104004B07047E36843F48013E360EFE7BE
:10194000E36843F04003E3602046FFF7A2FF9DF801
:10195000153023B9A36B43F48033A363E3E7A36B90
:1019600023F48033A363DEE7E36D9BB2E365E26DAE
:10197000084B1343E365A36823F01E03A360A36829
:1019800043F00603A360A36843F02003A360CEE7FF
:10199000BFFFBDFF0000EE03022A0AD00922C36880
:1019A00023F47053C360C36843EA8223C3600020FA
:1019B0007047204B0B44204A934229D91F4B0B44BC
:1019C0001F4A934226D91F4B0B441F4A934223D9E7
:1019D0001E4B0B441E4A934220D31E4B0B441E4AFF
:1019E00093421DD91D4B0B441D4A93421AD31D4BE4
:1019F0000B441D4A934217D31C4B0B441C4A934281
:101A000014D31C4B0B441C4A934211D20722C6E745
:101A10000F22C4E70E22C2E70D22C0E70C22BEE768
:101A20000B22BCE70A22BAE70922B8E70822B6E788
:101A30000622B4E7405327FFFF340C00401E1BFF73
:101A40003F420F0000DC0BFF7F4F1200808CF9FE3D
:101A500020D6130060B6E5FE5FE3160000D3CEFE8D
:101A600040771B00C05BB3FEC091210000CA91FE0D
:101A700020753800E05459FEE09C4100836843F033
:101A80000103836000207047836823F001038360B3
:101A90000020704782B000230193019B0133019322
:101AA000019BB3F1706F15D80369002BF5DA0023A1
:101AB0000193890141F020010161019B01330193F0
:101AC000019BB3F1706F08D8036913F0200FF4D1B4
:101AD000002000E0032002B070470320FBE782B043
:101AE00000230193019B01330193019BB3F1706FBC
:101AF00013D80369002BF5DA002301931023036147
:101B0000019B01330193019BB3F1706F08D8036906
:101B100013F0100FF4D1002000E0032002B0704752
:101B20000320FBE7D0F800381943C0F80018002064
:101B30007047000084B070B5044605A880E80E0028
:101B4000002306E003F1400204EB82020021516011
:101B500001330E2BF6D99DF81E5005BBD4F804387E
:101B600043F00203C4F80438A36B23F40013A36307
:101B7000236843F040032360236843F0800323601D
:101B80000023C4F8003E9DF81930012B11D19DF8B7
:101B900017304BB919462046FFF7C4FF0DE0A36B81
:101BA00043F40013A363EBE701212046FFF7BAFFDC
:101BB00003E003212046FFF7B5FF10212046FFF781
:101BC00069FF064608B101231E462046FFF787FF3E
:101BD00008B101231E4604F5006C0023CCF8103038
:101BE000CCF81430CCF81C300DE04FF09040C2F827
:101BF000000902E00020C2F8000900220A614FF645
:101C00007F328A6001339DF8141099420ED904EB9B
:101C1000431202F51061D2F800090028EADA002B1D
:101C2000E3D14FF00060C2F80009E6E700230AE0C4
:101C3000CBB14FF0904EC2F800EB002202614FF69C
:101C40007F3282600133994212D904EB431202F5CC
:101C50003060D2F800EBBEF1000FE9DB4FF0000E70
:101C6000C2F800EBE9E74FF0006EC2F800EBE4E7E2
:101C7000DCF8103023F48073CCF810300023A3611B
:101C80006FF0804363619DF816301BB9A36943F080
:101C90001003A361A2690B4B1343A3619DF81A3093
:101CA0001BB1A36943F00803A361012D04D03046A2
:101CB000BDE8704004B07047A269034B1343A361B1
:101CC000F5E700BF00383C8004000040D0F8083839
:101CD00013F0060305D0062B18BF022B03D10220F8
:101CE0007047002070470F207047000010B591F832
:101CF00000C04B78012B22D000F5006ED0F81C38C4
:101D00000CF00F02012404FA02F243EA0243C0F885
:101D10001C3800EB4C10D0F8003B13F4004F0CD1F2
:101D2000D0F8002B8B68C3F30A03097943EA814397
:101D30001A43154B1343C0F8003B002010BD00F5BB
:101D4000006ED0F81C280CF00F03012404FA03F3F2
:101D50009BB21343C0F81C3800EB4C10D0F800398C
:101D600013F4004FE9D1D0F800298B68C3F30A03BC
:101D7000097943EA814343EA8C531A43024B1343E4
:101D8000C0F80039D9E700BF0080001000B50B781B
:101D90004A78012A25D000EB4313D3F8002B002A00
:101DA00054DBD0F83CE80A7802F00F024FF0010C47
:101DB0000CFA02F22EEA0242C0F83C28D0F81C28A5
:101DC000097801F00F010CFA01FC22EA0C42C0F87C
:101DD0001C28D3F8001B244A0A40C3F8002B00201B
:101DE00000BD00EB4313D3F80029002A21DBD0F813
:101DF0003CE80A7802F00F024FF0010C0CFA02F2F4
:101E000092B22EEA0202C0F83C28D0F81C280978C9
:101E100001F00F010CFA01FC1FFA8CFC22EA0C0203
:101E2000C0F81C28D3F80019104A0A40C3F800294A
:101E3000D5E7D3F8002942F00062C3F80029D3F8AF
:101E4000002942F08042C3F80029D0E7D3F8002BE4
:101E500042F00062C3F8002BD3F8002B42F080421E
:101E6000C3F8002B9DE700BF0078F3EF007833EC58
:101E700082B0024600230193D0F808C048780128B8
:101E80001DD0936923F080039361536913F0800F91
:101E900005D1D2F8043843F40073C2F804381CF0BA
:101EA000200F47D1019B01330193019BB3F5702FA4
:101EB0002ED8536913F0100FF4D0002029E00B78CE
:101EC00002EB4313D3F800C9BCF1000F01DB002083
:101ED00068E0D3F800C94CF0006CC3F800C90B7877
:101EE00002EB4313D3F800C94CF0804CC3F800C98F
:101EF000019B01330193019BB3F5702F52D80B78EE
:101F000002EB4313D3F80039002BF1DB002049E04A
:101F10000120136A0093009B00230193019B01336E
:101F20000193019BB3F5702F06D8536913F0800F0E
:101F3000F4D002E00020EFE701200B7802EB43131E
:101F4000D3F800CB4CF0006CC3F800CB0B7802EB5D
:101F50004313D3F800CB4CF0804CC3F800CB0023E4
:101F60000193019B01330193019BB3F5702F09D8B5
:101F70000B7802EB431303F530639B6813F0020FF9
:101F8000EFD000E001200B7802EB4313D3F8081BDD
:101F900041F00201C3F8081BD2F8043843F480630F
:101FA000C2F8043802B070470B784A78012A14D07E
:101FB00000EB4310D0F8002B002A06DB2BB1D0F841
:101FC000003B23F08043C0F8003BD0F8003B43F4D3
:101FD0000013C0F8003B0020704700EB4310D0F81E
:101FE0000029002A06DB2BB1D0F8003923F080430A
:101FF000C0F80039D0F8003943F40013C0F80039B4
:10200000E9E70B784A78012A0ED000EB4310D0F8AC
:10201000003B23F40013C0F8003B0B79023BDBB21A
:10202000012B15D90020704700EB4310D0F8003980
:1020300023F40013C0F800390B79023BDBB2012B0B
:10204000F0D8D0F8003943F08053C0F80039E9E700
:10205000D0F8003B43F08053C0F8003BE2E710B5F6
:1020600004469DF8080078B903334FEA930E84467E
:1020700008E004EB023303F5805351F8040B1860B9
:102080000CF1010CF445F4D3002010BD70B582B002
:1020900016460A784B78012B31D000EB421E0EF524
:1020A0003063D3F810C06FF3120CC3F810C0D3F82C
:1020B00010C06FF3DC4CC3F810C0002A40F0E6807B
:1020C0000A690AB18A680A618A680A621C69C2F3ED
:1020D000120222431A611A6942F400221A61012E87
:1020E00000F0F7800B79012B00F0F980DEF8003B5F
:1020F00043F00443CEF8003B002002B070BD0B69F2
:102100007BBB00EB4213D3F810E96FF3DC4EC3F84E
:1021100010E9D3F810E94EF4002EC3F810E9D3F813
:1021200010E96FF3120EC3F810E9012E6CD000EB2A
:102130004212D2F8003943F00443C2F800390B7957
:10214000012B00F08A800B69002BD5D0D0F83438F1
:10215000097801F00F0101228A401343C0F8343896
:10216000CAE700EB421303F51063D3F810E06FF3F6
:10217000120EC3F810E0D3F810E06FF3DC4EC3F892
:1021800010E0B2B9D1F808E00C69744501D9C1F882
:1021900010E0D3F810E04EF4002EC3F810E0D3F8AE
:1021A00010E00C69C4F3120C4EEA0C0EC3F810E0F8
:1021B000BBE7D1F808C00C6904EB0C0E0EF1FF3E32
:1021C000BEFBFCFED3F810C01FFA8EF425464D4C22
:1021D00004EACE4E4CEA0E0EC3F810E091F804E08B
:1021E000BEF1010FDBD1D3F810E02EF0C04EC3F8E2
:1021F00010E0D3F810C04FEA457E0EF0C04E4CEA16
:102200000E0EC3F810E0CAE7CB691BB100EB421C0D
:10221000CCF814390B79012B08D000EB4212D2F81C
:10222000003943F00443C2F8003965E7D0F80838B4
:1022300013F4807F08D100EB4211D1F8003943F04C
:102240000053C1F80039E8E700EB4211D1F800393A
:1022500043F08053C1F80039DFE7D0F8083813F4B1
:10226000807F0CD1D2F8003943F00053C2F8003916
:1022700000960B8A0A78C968FFF7F1FE3CE7D2F8AE
:10228000003943F08053C2F80039F1E70A6952B9C6
:102290001A698C68C4F3120422431A611A6942F461
:1022A00000221A611BE78C682244013AB2FBF4F267
:1022B00092B202FB04F40C621C69124D05EAC242A0
:1022C00022431A611A690C6AC4F3120422431A6188
:1022D00005E7CA68002A3FF405AF5A6102E7D0F863
:1022E000083813F4807F06D1DEF8003B43F000533A
:1022F000CEF8003BFAE6DEF8003B43F08053CEF820
:10230000003BF3E60000F81F00B5844608464FEA9C
:10231000920E02F00302002305E00CF580510968DB
:1023200040F8041B01337345F7D37AB10CF5805C98
:10233000DCF800C00021CBB2DB002CFA03F300F87C
:10234000013B0131013A92B2002AF4D100BDD0F82C
:10235000003823F4FE63C0F80038D0F800380901D3
:1023600001F4FE610B43C0F8003800207047D0F83C
:10237000003E23F00303C0F8003ED0F8043823F0F9
:102380000203C0F8043800207047D0F8003E23F064
:102390000303C0F8003ED0F8043843F00203C0F84D
:1023A0000438002070474269806910407047D0F8B7
:1023B000183800F50060C0691840000C7047D0F86C
:1023C000183800F50060C069184080B2704700EB13
:1023D0004111D1F8082B00F50060406910407047AA
:1023E000D0F81028D0F8343801F00F0C23FA0CF391
:1023F000DB01DBB2134300EB411000F51060806895
:1024000018407047406900F00100704738B5054634
:10241000C36823F0C043C360012913D019BBC3684C
:1024200043F08043C3600C460A2001F087FE0A3463
:102430002846FFF7E7FF08B1C72CF5D9C82C14D000
:10244000002038BDC36843F00053C36000240A2055
:1024500001F074FE0A342846FFF7D4FF0128EDD0BE
:10246000C72CF4D9EAE70120EBE70120E9E7D0F82F
:1024700000396FF30A03C0F80039D0F8043843F488
:102480008073C0F804380020704700008C46016C4F
:10249000144B994203D9D0F8003B002B17DB0021E5
:1024A000C0F8101BD0F8101B41F40021C0F8101B1D
:1024B000D0F8101B41F01801C0F8101BD0F8101B09
:1024C00041F0C041C0F8101BBCF1010F01D0002049
:1024D0007047C0F8142BD0F8003B43F08023C0F8BD
:1024E000003BF4E70A30544F002800F0D58238B59D
:1024F0000446036813F0010F25D0964A136903F0D0
:102500003803926A102B15D0182B0FD06368B3F5DF
:10251000803F3FD0002B53D18E4B1A6822F480327B
:102520001A601A6822F480221A6038E002F003026E
:10253000022AEBD1874B1B6813F4003F03D063687A
:10254000002B00F0AB82236813F0020F00F08880AC
:10255000804A1369926A13F038035AD0182B55D069
:10256000E368002B00F0A9807A490A6822F019027A
:1025700013430B6001F0DCFD0546764B1B6813F03E
:10258000040F40F0918001F0D3FD401B0228F4D9E4
:1025900003208AE26F4A136843F480331360636850
:1025A0002BB301F0C5FD05466A4B1B6813F4003FD1
:1025B000C9D101F0BDFD401B6428F5D9032074E2A8
:1025C000B3F5A02F09D0634B1A6822F480321A6049
:1025D0001A6822F480221A60E1E75E4B1A6842F41E
:1025E00080221A601A6842F480321A60D7E701F03C
:1025F0009FFD0546574B1B6813F4003FA3D001F025
:1026000097FD401B6428F5D903204EE212F0030F1A
:10261000A6D1504B1B6813F0040F03D0E368002BC6
:1026200000F03E824B4A136823F01903E1680B4324
:10263000136001F07DFD0546464B1B6813F0040F47
:1026400006D101F075FD401B0228F5D903202CE2CC
:10265000404A536823F0FE43216943EA0163536013
:10266000236813F0100F51D03A4A136903F038036E
:10267000926A082B39D0182B33D0E369002B6BD02A
:10268000344A136843F08003136001F051FD05469E
:10269000304B1B6813F4807F53D101F049FD401B80
:1026A0000228F5D9032000E22A4A536823F0FE43AA
:1026B000216943EA01635360D2E7264A136823F095
:1026C0000103136001F034FD0546224B1B6813F033
:1026D000040FC5D001F02CFD401B0228F5D90320C2
:1026E000E3E102F00302012AC7D11A4B1B6813F47D
:1026F000807F03D0E369802B40F0D481154AD368F2
:1027000023F07C53216A43EA0163D360236813F00A
:10271000080F49D06369002B32D00E4A536F43F043
:102720000103536701F004FD05460A4B5B6F13F08C
:10273000020F39D101F0FCFC401B0228F5D903201F
:10274000B3E1044AD36823F07C53216A43EA01636E
:10275000D360DBE700440258A54A136823F08003E6
:10276000136001F0E5FC0546A14B1B6813F4807F64
:10277000CCD001F0DDFC401B0228F5D9032094E108
:102780009B4A536F23F00103536701F0D1FC0546C8
:10279000974B5B6F13F0020F06D001F0C9FC401B92
:1027A0000228F5D9032080E1236813F0200F29D0F7
:1027B000A3699BB18E4A136843F48053136001F000
:1027C000B7FC05468A4B1B6813F4005F1AD101F071
:1027D000AFFC401B0228F5D9032066E1844A136848
:1027E00023F48053136001F0A3FC0546804B1B6863
:1027F00013F4005F06D001F09BFC401B0228F5D9C2
:10280000032052E1236813F0040F21D1636A002BE7
:1028100000F04A81764A126902F03802182A00F064
:10282000F180022B75D0724A136823F08073136015
:1028300001F07EFC04466E4B1B6813F0007F00F035
:10284000DF8001F075FC001B0228F4D903202CE185
:10285000684A136843F48073136001F069FC05460D
:10286000644B1B6813F4807F06D101F061FC401BB0
:102870006428F5D9032018E1A368012B0AD00BBB0B
:102880005B4B1A6F22F001021A671A6F22F00402E2
:102890001A6704E0564A136F43F001031367A368F5
:1028A00033B301F045FC0546514B1B6F13F0020F8B
:1028B000ACD101F03DFC401B41F288339842F3D982
:1028C0000320F2E0052B09D0494B1A6F22F00102D8
:1028D0001A671A6F22F004021A67E0E7444B1A6F76
:1028E00042F004021A671A6F42F001021A67D6E733
:1028F00001F01EFC05463E4B1B6F13F0020F85D006
:1029000001F016FC401B41F288339842F3D90320B2
:10291000CBE0374A136823F08073136001F008FCA2
:102920000546334B1B6813F0007F06D001F000FC16
:10293000401B0228F5D90320B7E02D4B996A2E4A97
:102940000A40A16AE06A41EA00110A439A62226BD6
:10295000013AC2F30802616B0139490289B20A43A4
:10296000A16B0139090401F4FE010A43E16B01394D
:10297000090601F0FE410A431A63DA6A22F00102F5
:10298000DA625A6B6FF3CF02A16C42EAC1025A635A
:10299000DA6A22F00C02216C0A43DA62DA6A22F067
:1029A0000202616C0A43DA62DA6A42F48032DA6265
:1029B000DA6A42F40032DA62DA6A42F48022DA62D7
:1029C000DA6A42F00102DA621A6842F080721A6032
:1029D00001F0AEFB0446064B1B6813F0007F0DD1DF
:1029E00001F0A6FB001B0228F5D903205DE000BF23
:1029F00000440258004802580CFCFFFF002054E03D
:102A0000002052E030498A6A086B012B4ED002F058
:102A10000303A16A8B424BD1C2F30512E36A9A42C7
:102A200048D1C0F30802236B013B9A4244D1C0F362
:102A30004622636B013B9A4240D1C0F30642A36B2E
:102A4000013B9A423CD1C0F30660E36B013B9842E4
:102A500038D11D4B5B6BC3F3CC03A26C9A4201D1FE
:102A6000002022E0184AD36A23F00103D36201F068
:102A70005FFB054601F05CFBA842FBD0124A536B9A
:102A80006FF3CF03A16C43EAC1035363D36A43F0EE
:102A90000103D362002008E001207047012004E018
:102AA000012002E0012000E0184638BD0120FCE7CB
:102AB0000120FAE70120F8E70120F6E70120F4E71A
:102AC0000120F2E70120F0E700440258744B1B6933
:102AD00003F03803102B00F0DD80182B0FD0002BF3
:102AE00040F0DA806E4B1B6813F0200F00F0D680A8
:102AF0006B4B1B68C3F3C1036A48D8407047684BEF
:102B00009A6A02F00302D3F828C0CCF30510D96A00
:102B100001F001015B6BC3F3CC0301FB03F307EE90
:102B2000903AF8EE677A1CF47C7F00F0B880012AB6
:102B30004AD0022A74D0002A40F08F80584B1B687C
:102B400013F0200F23D056490A68C2F3C102554B37
:102B5000D34007EE103AF8EE476A07EE100AB8EED7
:102B6000476A86EE867A0B6BC3F3080306EE903A4B
:102B7000F8EE666A9FED4C6A67EE867A76EEA77A83
:102B8000F7EE006A77EEA67A27EE277A38E007EEAE
:102B9000100AF8EE476A9FED456A86EE267A404BAA
:102BA0001B6BC3F3080306EE903AF8EE666A9FEDDE
:102BB0003E6A67EE867A76EEA77AF7EE006A77EEDF
:102BC000A67A27EE277A1BE007EE100AF8EE476A8E
:102BD0009FED376A86EE267A314B1B6BC3F30803F1
:102BE00006EE903AF8EE666A9FED2F6A67EE867AF7
:102BF00076EEA77AF7EE006A77EEA67A27EE277AC6
:102C0000274B1B6BC3F34623013307EE903AF8EED4
:102C1000677AC7EE276AFCEEE67A17EE900A7047ED
:102C200007EE100AF8EE476A9FED226A86EE267AD2
:102C30001B4B1B6BC3F3080306EE903AF8EE666A73
:102C40009FED196A67EE867A76EEA77AF7EE006A4C
:102C500077EEA67A27EE277AD2E707EE100AF8EE8B
:102C6000476A9FED136A86EE267A0D4B1B6BC3F302
:102C7000080306EE903AF8EE666A9FED0B6A67EE7F
:102C8000867A76EEA77AF7EE006A77EEA67A27EED6
:102C9000277AB5E7084870470848704701487047E9
:102CA000004402580090D003000000390024744C06
:102CB0000024744A20BCBE4B40787D0100093D00D1
:102CC000002800F0328170B50D4604469B4B1B680E
:102CD00003F00F038B420BD2984A136823F00F03C3
:102CE0000B431360136803F00F038B4240F01F8106
:102CF000236813F0040F0CD02269914B9B6903F0F9
:102D000070039A4205D98E498B6923F070031A43E8
:102D10008A61236813F0080F0CD06269884BDB6965
:102D200003F070039A4205D98549CB6923F07003FB
:102D30001A43CA61236813F0100F0CD0A269804BAC
:102D4000DB6903F4E0639A4205D97D49CB6923F43A
:102D5000E0631A43CA61236813F0200F0CD0E269C4
:102D6000774B1B6A03F070039A4205D974490B6ACA
:102D700023F070031A430A62236813F0020F0CD089
:102D8000E2686F4B9B6903F00F039A4205D96C49C7
:102D90008B6923F00F031A438A61236813F0010F34
:102DA00041D0674A936923F47063A1680B43936130
:102DB0006368022B0AD0032B27D0012B2CD0604A4A
:102DC000126812F0040F06D10120ADE0126812F46F
:102DD000003F00F0AE805A490A6922F0070213430F
:102DE0000B6101F0A5F90646554B1B6903F038034A
:102DF0006268B3EBC20F16D001F09AF9801B41F262
:102E000088339842F0D903208EE04D4A126812F0C0
:102E1000007FE0D1012087E0494A126812F4807FE8
:102E2000D9D1012080E0236813F0020F0CD0E268B2
:102E3000434B9B6903F00F039A4205D240498B69CB
:102E400023F00F031A438A613C4B1B6803F00F0306
:102E5000AB420AD9394A136823F00F032B4313609E
:102E6000136803F00F03AB4265D1236813F0040F1E
:102E70000CD02269324B9B6903F070039A4205D251
:102E80002F498B6923F070031A438A61236813F07A
:102E9000080F0CD062692A4BDB6903F070039A4279
:102EA00005D22749CB6923F070031A43CA6123680E
:102EB00013F0100F0CD0A269214BDB6903F4E0631F
:102EC0009A4205D21E49CB6923F4E0631A43CA61D2
:102ED000236813F0200F0CD0E269194B1B6A03F032
:102EE00070039A4205D216490B6A23F070031A4305
:102EF0000A62FFF7EBFD12498B69C3F30323114A02
:102F0000D35C03F01F03D8408B6903F00F03D35C3D
:102F100003F01F0320FA03F30B4A13600B4B1860F6
:102F20000B4B186801F0A0F870BD0120704701201C
:102F3000FAE70120F8E70120F6E700BF0020005281
:102F400000440258DC630008700000207400002078
:102F50006C00002008B5FFF7B9FD0B4A9369C3F375
:102F600003230A49CB5C03F01F0320FA03F39269A1
:102F700002F00F02885C00F01F0023FA00F0044A00
:102F80001060044A136008BD00440258DC63000866
:102F90007000002074000020404B9B6A03F0030384
:102FA000032B79D070B505460E463C4A136823F0D2
:102FB0008063136001F0BCF80446384B1B6813F0C3
:102FC000006F06D001F0B4F8031B022BF5D90320E3
:102FD00070BD324B9A6A22F47C32296842EA01328F
:102FE0009A626A68013AC2F30802A9680139490283
:102FF00089B20A43E9680139090401F4FE010A4370
:1030000029690139090601F0FE410A439A63DA6A27
:1030100022F0C00269690A43DA62DA6A22F0200209
:10302000A9690A43DA62DA6A22F01002DA62DA6B1C
:103030006FF3CF02E96942EAC102DA63DA6A42F069
:103040001002DA62C6B9154AD36A43F40023D36288
:10305000124A136843F08063136001F069F8044674
:103060000E4B1B6813F0006F14D101F061F8001BC8
:103070000228F5D90320ABE7012E05D0074AD36A11
:1030800043F40013D362E3E7044AD36A43F48013A2
:10309000D362DDE700209BE701207047004402581F
:1030A000404B9B6A03F00303032B79D070B50546B0
:1030B0000E463C4A136823F08053136001F038F841
:1030C0000446384B1B6813F0005F06D001F030F85F
:1030D000031B022BF5D9032070BD324B9A6A22F0F4
:1030E0007C72296842EA01529A626A68013AC2F324
:1030F0000802A9680139490289B20A43E96801391D
:10310000090401F4FE010A4329690139090601F0A5
:10311000FE410A431A64DA6A22F4406269690A438A
:10312000DA62DA6A22F40072A9690A43DA62DA6AB8
:1031300022F48072DA625A6C6FF3CF02E96942EAD4
:10314000C1025A64DA6A42F48072DA62C6B9154A78
:10315000D36A43F48003D362124A136843F0805366
:10316000136000F0E5FF04460E4B1B6813F0005F90
:1031700014D100F0DDFF001B0228F5D90320ABE7D6
:10318000012E05D0074AD36A43F08073D362E3E788
:10319000044AD36A43F40003D362DDE700209BE7CF
:1031A0000120704700440258F8B50446036813F044
:1031B000006F2FD0436EB3F5001F25D015D8E3B1B3
:1031C000B3F5801F0ED102210830FFF7E5FE05465A
:1031D000A5BB954A136D23F44013616E0B43136531
:1031E000002619E00126354616E0B3F5401F01D14F
:1031F0000025EEE7012635460EE08B4AD36A43F4FC
:103200000033D3620025E4E702212830FFF748FFAE
:103210000546DDE700263546236813F4807F2ED06F
:10322000A36D022B23D00ED89BB1012B08D1002116
:1032300004F10800FFF7B0FE05460FE02E46EBE76D
:10324000012635461BE0033B012B07D901263546F5
:1032500015E0754AD36A43F40033D36275B9724AF4
:10326000136D23F00703A16D0B43136507E00021E5
:1032700004F12800FFF714FF0546EFE72E46236808
:1032800013F4806F2DD0D4F8A430B3F5800F3DD067
:103290000DD8C3B1B3F5001F06D1002104F1080019
:1032A000FFF77AFE054613E00126354619E0B3F52F
:1032B000000F0DD0B3F5200F0AD0B3F5C00F07D023
:1032C000012635460DE0584AD36A43F40033D362F1
:1032D0001DBB554A936D23F46003D4F8A4100B432F
:1032E0009365236813F4006F37D0D4F8A830B3F196
:1032F000007F5ED016D80BB3B3F1807F0FD10021D1
:1033000004F10800FFF748FE05461CE0002104F127
:103310002800FFF7C5FE0546DAE72E46E1E701265D
:1033200035461AE0B3F1806F0DD0B3F1A06F0AD02B
:10333000B3F1407F07D0012635460EE03A4AD36A02
:1033400043F40033D362002D3AD1374A936D23F012
:10335000E063D4F8A8100B439365236813F0007F53
:1033600013D0E36C202B35D02FD833B1102B29D1BB
:103370002D4AD36A43F40033D36295BB2A4AD36CF7
:1033800023F03003E16C0B43D364236813F4805FB4
:103390004DD0E36DB3F5005F3FD027D87BB3B3F5D5
:1033A000805F20D1002104F10800FFF7F5FD0546FC
:1033B0002AE0002104F12800FFF772FE0546C2E76B
:1033C0002E46CAE701263546DFE7302BD5D0012649
:1033D0003546DAE7022104F10800FFF7DDFD054676
:1033E000CBE72E46D1E70126354620E0B3F5405F16
:1033F0000AD0B3F5804F07D00126354617E00A4AB8
:10340000D36A43F40033D36285B9074A136D23F4BA
:10341000E043E16D0B43136509E0002104F128004E
:10342000FFF73EFE0546EFE7004402582E462368AC
:1034300013F4005F17D0236EB3F5003F51D044D88A
:1034400043B1B3F5803F3DD1012104F10800FFF7FE
:10345000A3FD0546002D4BD1324A136D23F4E02322
:10346000216E0B431365236813F4804F19D0D4F8F1
:10347000AC30B3F1005F4CD03FD843B1B3F1805FC3
:1034800038D1012104F10800FFF786FD0546002D23
:1034900046D1244A936D23F0E043D4F8AC100B439B
:1034A0009365236813F4004F4DD0E36EB3F1805F52
:1034B0003AD0B3F1005F00F07181002B39D00126C2
:1034C000354640E001263546CDE7B3F5802FC1D023
:1034D000B3F5A02FBED0B3F5403FBBD00126354693
:1034E000C1E7012104F12800FFF7DAFD0546B1E745
:1034F0002E46B8E701263546D3E7B3F1804FC6D054
:10350000B3F1A04FC3D0B3F1405FC0D00126354620
:10351000C7E7012104F12800FFF7C2FD0546B6E721
:103520002E46BEE700440258AA4AD36A43F4003349
:10353000D362002D40F03981A64A136D23F0405329
:10354000E16E0B431365236813F0807F18D0A36CE2
:10355000022B00F0358100F22D813BB1012B40F0B0
:1035600026819C4AD36A43F40033D362002D40F095
:103570002E81984AD36C23F00303A16C0B43D364D0
:10358000236813F4800F40F02781236813F0010FA4
:1035900019D0A36F102B00F0928100F2848143B107
:1035A000082B40F07D81012104F10800FFF7F4FCB5
:1035B0000546002D40F08A81864A536D23F038037A
:1035C000A16F0B435365236813F0020F19D0636F8B
:1035D000022B00F0878100F27E8143B1012B40F085
:1035E0007781012104F10800FFF7D6FC0546002D84
:1035F00040F07F81774A536D23F00703616F0B43DF
:103600005365236813F0040F1BD0D4F89030022BBD
:1036100000F07B8100F2728143B1012B40F06B819D
:10362000012104F10800FFF7B7FC0546002D40F02A
:103630007381684A936D23F00703D4F890100B430D
:103640009365236813F0200F1DD0D4F88C30B3F1AC
:10365000005F00F0758100F264814BB1B3F1805FCF
:1036600040F05C81002104F10800FFF795FC05465D
:10367000002D40F06C81574A536D23F0E043D4F89D
:103680008C100B435365236813F0400F1DD0D4F802
:103690009830B3F5006F00F06E8100F25D814BB1A0
:1036A000B3F5806F40F05581002104F10800FFF769
:1036B00073FC0546002D40F06581464A936D23F466
:1036C000E053D4F898100B439365236813F0800FF0
:1036D0001DD0D4F89C30B3F5804F00F0678100F224
:1036E00056814BB1B3F5005F40F04E81002104F1EB
:1036F0000800FFF751FC0546002D40F05E81354A79
:10370000936D23F46043D4F89C100B4393652368B6
:1037100013F0080F0DD0D4F88030B3F5805F00F0BF
:103720004E812C4A536D23F44053D4F880100B4340
:103730005365236813F0100F0DD0D4F89430B3F50F
:10374000807F00F04681234A936D23F44073D4F8C0
:1037500094100B439365236813F4002F00F04E81FF
:10376000D4F8A030B3F5803F00F03D81B3F5003FC1
:1037700008D0002B40F03E81194604F10800FFF705
:103780000BFC0546002D40F03881124A936D23F45E
:103790004033D4F8A0100B4393652FE1012104F1CD
:1037A0000800FFF7F9FB0546C3E62E46CBE60126E7
:1037B0003546E5E6032B3FF4D9AE01263546DFE674
:1037C000022104F10800FFF7E7FB0546CEE62E468E
:1037D000D6E600BF00440258AD4A136843F4807334
:1037E000136000F0A5FC0746A94B1B6813F4807F0B
:1037F00005D100F09DFCC01B6428F5D90325002DE0
:103800004AD1A44B1B6FD4F8B020534013F4407F2F
:103810000CD0A04B1A6F22F44072196F41F4803122
:103820001967196F21F4803119671A67D4F8B0301D
:10383000B3F5807F15D08DBBD4F8B03003F440725F
:10384000B2F5407F1ED0934A136923F47C53136171
:1038500090490B6FD4F8B020C2F30B0213430B67EF
:1038600093E600F065FC07468A4B1B6F13F0020FCE
:10387000E1D100F05DFCC01B41F288339842F3D9DE
:103880000325D8E78348026922F47C52824901EA81
:10389000131313430361DBE72E4676E62E4674E6E8
:1038A000012635468FE6202B3FF483AE282B3FF4CC
:1038B00080AE182B3FF47DAE0126354683E601210C
:1038C00004F12800FFF7ECFB054672E62E467AE687
:1038D0000126354695E6033B022B7FF688AE01268E
:1038E00035468EE6012104F12800FFF7D9FB054695
:1038F0007DE62E4685E601263546A2E6033B022BF1
:103900007FF694AE012635469BE6012104F128009E
:10391000FFF7C6FB054689E62E4692E601263546A8
:10392000B1E6B3F1804F3FF4A3AEB3F1A04F3FF443
:103930009FAEB3F1405F3FF49BAE01263546A2E651
:10394000022104F12800FFF7ABFB054690E62E4666
:1039500099E601263546B8E6B3F5805F3FF4AAAE96
:10396000B3F5A05F3FF4A6AEB3F5406F3FF4A2AE4F
:1039700001263546A9E6022104F12800FFF790FB55
:10398000054697E62E46A0E601263546BFE6B3F586
:10399000004F3FF4B1AEB3F5204F3FF4ADAEB3F5F9
:1039A000C04F3FF4A9AE01263546B0E6022104F12E
:1039B0002800FFF775FB05469EE62E46A7E6022186
:1039C00004F12800FFF76CFB00283FF4AAAE0126A3
:1039D000A7E6022104F12800FFF762FB00283FF46C
:1039E000B2AE0126AFE6022104F12800FFF758FB32
:1039F0000546C7E60126354600E02E46236813F447
:103A0000802F24D0D4F88430B3F5001F14D0B3F540
:103A1000401F07D0B3F5801F15D11E4AD36A43F467
:103A20000033D36295B91B4A536D23F44013D4F885
:103A300084100B4353650AE0012104F12800FFF7CD
:103A40002FFB0546EEE70126354600E02E462368AB
:103A500013F4803F06D0236D03B3B3F5803F2BD022
:103A600001263546236813F0005F2ED1236813F436
:103A7000003F44D0E36FB3F5807F32D02ED9B3F549
:103A8000007F33D0B3F5407F30D0012637E000BF50
:103A90000048025800440258CFFFFF005F4AD36A33
:103AA00043F40033D36275B95C4AD36C23F480339A
:103AB000216D0B43D364D5E7022104F10800FFF721
:103AC0006BFA0546EFE72E46CCE7022104F1280009
:103AD000FFF7E6FA0028C9D00126C7E733B101266F
:103AE0000DE04E4AD36A43F40033D362002D5CD11B
:103AF0004A4A536D23F44073E16F0B4353652368C7
:103B000013F4801F06D0454A136D23F00043216F44
:103B10000B431365236813F4001F06D03F4A136D4F
:103B200023F08073A16E0B431365236813F0804F5D
:103B300009D03A4B1A6922F400421A611A69D4F882
:103B4000B4100A431A612368002B06DA334AD36C97
:103B500023F04053616D0B43D364236813F4000FCB
:103B600007D02E4A536D23F44003D4F888100B433A
:103B70005365636813F0010F19D1636813F0020FE6
:103B80001ED1636813F0040F23D1636813F0080F8C
:103B900028D1636813F0100F2DD1636813F0200F44
:103BA00032D106B101263046F8BD2E46A7E70021E6
:103BB00004F10800FFF7F0F90028DED00646DCE744
:103BC000012104F10800FFF7E7F90028D9D00646E3
:103BD000D7E7022104F10800FFF7DEF90028D4D06E
:103BE0000646D2E7002104F12800FFF759FA002821
:103BF000CFD00646CDE7012104F12800FFF750FAA7
:103C00000028CAD00646C8E7022104F12800FFF7C1
:103C100047FA0028C5D00126C5E700BF0044025876
:103C200070B582B0002376E085684FEA430E032426
:103C300004FA0EF425EA0405CC6804FA0EF42C43C9
:103C40008460446824EA0C044D68C5F3001C0CFA37
:103C500003FC4CEA0404446072E08C68012C75D1CA
:103C600082E0DD08083550F8254003F0070C4FEAE4
:103C70008C0C4FF00F0E0EFA0CFE24EA0E0E0C699F
:103C800004FA0CF444EA0E0440F8254073E00924D9
:103C900000E0002404FA0EF42C430CF1020C6A4DEF
:103CA00045F82C404FF0B04424686FEA020C24EA37
:103CB00002054E6816F4801F01D042EA04054FF059
:103CC000B044256064680CEA04054E6816F4001FD1
:103CD00001D042EA04054FF0B0446560D4F8844056
:103CE0000CEA04054E6816F4003F01D042EA0405D0
:103CF0004FF0B044C4F88450D4F880400CEA040576
:103D00004E6816F4803F01D042EA04054FF0B042FD
:103D1000C2F8805001330A6832FA03F400F091804F
:103D20004FF0010C0CFA03FC1CEA0202F2D04C68C2
:103D300004F0030E0EF1FF3EBEF1010F7FF674AFEB
:103D40004C6804F0030CBCF1030F86D0C5685C001E
:103D50004FF0030C0CFA04FC25EA0C0E8D6805FAF2
:103D600004FC4CEA0E04C4604C6804F0030CBCF183
:103D7000020F3FF476AF05685C004FF0030C0CFABD
:103D800004FC25EA0C0E4D6805F0030C0CFA04FC4B
:103D90004CEA0E0404604C6814F4403FBAD02B4C3B
:103DA000D4F8F45045F00205C4F8F450D4F8F440C7
:103DB00004F002040194019C4FEA930C0CF10205FB
:103DC000214C54F8255003F0030E4FEA8E0E0F24B9
:103DD00004FA0EF425EA04051D4CA0423FF459AF45
:103DE00004F58064A0421ED004F58064A0421CD07B
:103DF00004F58064A0421AD004F58064A04218D073
:103E000004F58064A04216D004F58064A04214D06A
:103E100004F58064A04212D004F50064A0423FF48F
:103E200036AF0A2436E7012434E7022432E70324BC
:103E300030E704242EE705242CE706242AE707248C
:103E400028E702B070BD00BF0004005800440258CB
:103E5000000002580AB1816170470904816170470E
:103E6000436901EA030221EA030141EA0241816157
:103E700070470000134BDB6813F0040F07D1114BA0
:103E8000DB6803F0070383421AD00120704710B5A6
:103E90000C4AD36823F007030343D36000F048F9CA
:103EA0000446084B5B6813F4005F07D100F040F94B
:103EB000001BB0F57A7FF4D9012000E0002010BD8E
:103EC0000020704700480258024AD36843F08073CC
:103ED000D360704700480258002807DB00F01F023B
:103EE000400901239340024A42F82030704700BF46
:103EF00000E100E0002804DB0901C9B2044B1954B9
:103F0000704700F00F000901C9B2024B1954704705
:103F100000E400E014ED00E000B500F00700A0F1BF
:103F2000030CBCF1040F07D8C0F1070E04300628BB
:103F300006D84FF0000C03E04FF0040E4FF0000CD9
:103F40004FF0FF3303FA0EF021EA000101FA0CF101
:103F500003FA0CF322EA030241EA020000BD00006A
:103F60000649CB6823F4E0631B041B0C000200F439
:103F7000E0600343024A1A43CA60704700ED00E064
:103F80000000FA0510B50446054BD868C0F30220BE
:103F9000FFF7C2FF01462046FFF7ACFF10BD00BF90
:103FA00000ED00E008B5FFF797FF08BD0138B0F15C
:103FB000807F0BD24FF0E0235861054AF02182F850
:103FC00023100020986107221A6170470120704772
:103FD00000ED00E0BFF35F8F044B5A6A22F4803299
:103FE0005A620022C3F89420704700BF00ED00E041
:103FF00040F00100054BC3F894005A6A42F4803245
:104000005A62BFF34F8FBFF36F8F704700ED00E030
:104010004378144AC2F89830D2F8A03023F0010354
:10402000C2F8A0304368C2F89C30017BC37A1B06FB
:1040300043EA0173817A43EAC143417B43EA814306
:10404000817B43EA4143C17B43EA0143417A43EA2E
:104050000123017A43EA410301780B43C2F8A030FF
:10406000704700BF00ED00E0104B1B780BB901203A
:10407000704710B504460E4A10684FF47A72B2FBCE
:10408000F3F3B0FBF3F0FFF791FF68B90F2C01D900
:1040900001200AE0024621464FF0FF30FFF772FF91
:1040A000044B1C60002000E0012010BD68000020CF
:1040B000740000206C00002010B50320FFF750FFB3
:1040C000FEF704FD10498B69C3F303230F4AD35C49
:1040D00003F01F03D8408B6903F00F03D35C03F098
:1040E0001F0320FA03F30A4A13600A4B18600F20DB
:1040F000FFF7BAFF18B101231C46204610BD044645
:10410000FCF7BEFAF9E700BF00440258DC63000880
:104110007000002074000020034B1B78034A1168D4
:104120000B441360704700BF68000020581D00203A
:10413000014B1868704700BF581D002038B5044671
:10414000FFF7F6FF0546B4F1FF3F02D0044B1B78A2
:104150001C44FFF7EDFF401BA042FAD338BD00BF5F
:10416000680000202B4AD2F8883043F47003C2F86C
:104170008830294B1B6803F00F03062B06D8264A0C
:10418000136823F00F0343F007031360234B1A68EF
:1041900042F001021A6000221A611968204A0A409E
:1041A0001A601D4B1B6813F0080F06D01A4A1368DB
:1041B00023F00F0343F007031360184B00229A61AA
:1041C000DA611A62174999621749D9621749196366
:1041D0005A639963DA6319645A64196821F4802177
:1041E00019601A66D3F8D43013F4805F10D10B4BEA
:1041F000D3F8D42042F48052C3F8D4200C4A43F2BE
:10420000D2011160D3F8D42022F48052C3F8D42014
:10421000704700BF00ED00E000200052004402584B
:104220007FEDF6EA000202020000FF0180020101B8
:1042300000400052044BDA6842F00202DA605A6829
:104240009204FCD5704700BF0048025808B590B1F1
:1042500003460020C3F8B802C3F8C402C3F8D00272
:1042600009B1C3F8B412012183F89C121A701846E0
:10427000FCF7CAFB08BD054801F0BAF9044801F093
:10428000B7F90A2001F0C6F90320F3E7A463000898
:10429000AC63000810B582B00023ADF80630B9B1A8
:1042A0000446C0F8B812D0F8D432CA6A42B1AE336C
:1042B00050F82330DB6A0DF106009847C4F8D002AD
:1042C000D4F8D8320133C4F8D832002002B010BD7F
:1042D000054801F08DF9054801F08AF90A2001F03E
:1042E00099F90320F2E700BFA4630008C463000843
:1042F00008B5FCF7EDFB08BD08B5D0F8B83213B12E
:104300001B68984708BD1846FCE708B5D0F8B832D6
:104310005B68984700B908BD0320FCE738B5044640
:1043200000F2AA25284600F0C5F90123C4F894320A
:10433000B4F8B032C4F8983294F8AA1201F01F030E
:10434000012B07D0022B0AD073B92946204600F072
:10435000A1FB38BD2946204600F0DDFBF9E72946E0
:10436000204600F020FCF4E701F080012046FCF735
:10437000CAFBEEE7F8B50446012380F89C3200231F
:10438000C0F894324360C0F8A43280F8A032D0F86C
:10439000B832E3B15B68E3B1002198470746D0B972
:1043A0004023002211462046FCF79AFB012684F8A0
:1043B00063614025A4F860512B46002280212046ED
:1043C000FCF78EFB84F8236025843846F8BD1F4631
:1043D000E6E71F46E4E703231F46E1E701740020F8
:1043E000704790F89C32042B04D090F89C32DBB2DA
:1043F00080F89D32042380F89C320020704790F8AA
:104400009C32042B01D00020704790F89D32DBB223
:1044100080F89C32F7E708B590F89C32032B01D066
:10442000002008BDD0F8B832002BF9D0DB69002B92
:10443000F6D09847F4E708B5D0F8D432AE3350F848
:10444000233053B190F89C22032A01D0002008BDEC
:104450001B6A23B198470020F9E70320F7E71846C5
:10446000F5E708B5D0F8D432AE3350F8233053B165
:1044700090F89C22032A01D0002008BD5B6A23B17A
:1044800098470020F9E70320F7E71846F5E70020F2
:10449000704708B5012380F89C32D0F8B83223B1B8
:1044A0005B680179984710B908BD1846FCE70320FE
:1044B000FAE7002070470020704738B504460D46E3
:1044C000002944D1D0F89432032B01D0084638BDDE
:1044D000D0F85831B0F86021934209D890F8AA3248
:1044E00003F01F03012B12D0022B1ED0084613E04D
:1044F0009B1AC0F85831D0F864111144C0F8641107
:104500009A4238BF1A4600F0B7FC2846DFE790F819
:10451000AE12FFF7CEFF18B994F89C32032B09D0E6
:10452000204600F0B1FC2846D1E790F8AE12FFF724
:10453000C2FFF0E700F1AE0354F823301A69002AF5
:10454000EED0C4F8D4021B6920469847E8E701F092
:104550007F01FFF7B0FF88B994F89C32032BB6D1E6
:1045600000F1AE0354F823309A69002AAFD0C4F8A2
:10457000D4029B69294620469847A8E70020A6E771
:1045800038B504460D4600294BD1D0F89432022BA1
:1045900007D094F8A00218B1002384F8A03228466E
:1045A00038BD8269038C9A420DD89A4219D094F88A
:1045B0009C32032B29D080212046FCF7A4FA204608
:1045C00000F06DFCE5E7D21A8261416A194441624C
:1045D00000F039FC00231A4619462046FCF7B3FACE
:1045E000D7E742699342E2D8D0F898329A42DED2B5
:1045F0000022114600F027FC0021C4F898120B4657
:104600000A462046FCF79FFAC3E7D4F8B832DA68C6
:10461000002AD0D00022C4F8D422DB682046984774
:10462000C9E741F08001FFF746FF88B994F89C3252
:10463000032BB5D100F1AE0354F823305A69002A98
:10464000AED0C4F8D4025B69294620469847A7E754
:104650000020A5E70B88027813440B8003781844E8
:104660007047428803789A4218D930B583B004461F
:104670000D46ADF806306388BDF806209A420AD28E
:104680000DF10601FFF7E6FF4378052BF3D18378A0
:10469000AB42F0D100E0002003B030BD00207047F5
:1046A0000346002002E00130C0B201331A78002A2C
:1046B000F9D170470B7803704B7843708B78CA78C8
:1046C00043EA022343800B794A7943EA0223838039
:1046D0008B79CA7943EA0223C380704710B5044638
:1046E0008021FCF710FA00212046FCF70CFA10BDDF
:1046F00030B583B004460D460023ADF806304A8835
:10470000130A062B00F0A58021D8022B31D0032BF1
:1047100043D0012B40F0B780D0F8B4321B680DF1C4
:104720000601007C9847EA88002A00F0B680BDF8B0
:104730000630002B00F0AC809A4228BF1A46ADF834
:1047400006200146204600F070FB03B030BD072B69
:1047500000F08B800F2B40F09680D0F8B432DB69EC
:1047600023B10DF10601007C9847DCE7FFF7B6FFA7
:10477000EBE7037C43B9D0F8B8329B6A0DF1060031
:10478000984702234370CEE7D0F8B832DB6A0DF1C8
:104790000600984702234370C5E7D2B2032A38D0F7
:1047A0000ED8012A1DD0022A27D0002A4CD1D0F8D9
:1047B000B4325B6893B10DF10601007C9847B2E713
:1047C000042A32D0052A3FD1D0F8B4329B69002B9D
:1047D00037D00DF10601007C9847A4E7FFF77EFF74
:1047E000B3E7D0F8B4329B6823B10DF10601007C29
:1047F000984798E7FFF772FFA7E7D0F8B432DB6875
:1048000023B10DF10601007C98478CE7FFF766FFA6
:104810009BE7D0F8B4321B6923B10DF10601007C8F
:10482000984780E7FFF75AFF8FE7D0F8B4325B690B
:1048300023B10DF10601007C984774E7FFF74EFFA6
:1048400083E7FFF74BFF80E729462046FFF746FF47
:104850007BE7037C33B9D0F8B8325B6B0DF106000F
:10486000984760E7FFF73AFF6FE7037C43B9D0F85A
:10487000B8321B6B0DF1060098470723437052E7CF
:10488000FFF72CFF61E729462046FFF727FF5CE78B
:1048900029462046FFF722FF57E7204600F0F4FAAA
:1048A00053E738B504468B8803BBCB88F3B94B88F4
:1048B0007F2B1BD803F07F031A4690F89C32032B02
:1048C0000DD0154680F89E221146FCF72CF92046A3
:1048D00000F0DAFA35B1022384F89C3209E0FFF7E0
:1048E000FDFE06E0012384F89C3202E02046FFF73B
:1048F000F5FE38BD70B504460E464B88DDB2324A2F
:104900001570012D11D890F89C22D1B2022A10D036
:10491000032928D03146FFF7E1FE2B4B19782046BA
:10492000FFF7F3FC0325284670BDFFF7D7FE0325EC
:10493000F9E7ADB1DBB243602946FFF7DDFC054680
:1049400038B131462046FFF7C9FE022384F89C3275
:10495000E9E7204600F098FA032384F89C32E2E766
:1049600000F092FADFE7D5B1DBB241688B4226D086
:10497000C9B2FFF7CAFC144B197861602046FFF7F3
:10498000BBFC0546B8B131462046FFF7A7FE2179AA
:104990002046FFF7BAFC022384F89C32C3E70222C8
:1049A00080F89C22DBB243602946FFF7AEFC20462C
:1049B00000F06AFAB7E7204600F066FAB3E700F0C5
:1049C00063FA0025AFE700BF5C1D002008B5CB8867
:1049D000012B0BD190F89C32DAB2022B09D9032AB1
:1049E00011D10122011D00F020FA01E0FFF776FE4F
:1049F00008BD52B23AB10146002341F8083F0122F6
:104A000000F013FAF4E7FFF769FEF1E708B590F854
:104A10009C32013B022B12D8CB88022B0CD10123F4
:104A2000C360D0F8A4320BB10323C360022200F1AB
:104A30000C0100F0FAF908BDFFF750FEFBE7FFF7A5
:104A40004DFEF8E708B54B88012B04D0022B07D0A8
:104A5000FFF744FE08BDC0F8A43200F015FAF9E7EC
:104A60008B881B0A80F8A03200F00EFAF2E708B536
:104A700090F89C32013B022B09D84B88012B00D0C7
:104A800008BD0023C0F8A43200F0FEF9F8E7FFF7F4
:104A900025FEF5E738B50C7804F06004202C06D02C
:104AA000402C04D06CB1FFF719FE002407E0D0F8C9
:104AB000D432AE3350F823309B68984704462046E2
:104AC00038BD4B781D46052B12D008D8012B1CD0C1
:104AD000032B17D0E3B9FFF799FF2C46EFE7082B1C
:104AE0000DD0092B07D0062B12D1FFF701FEE6E708
:104AF000FFF7D7FEE3E7FFF7FDFE0446DFE7FFF72A
:104B000065FFDCE7FFF79EFFD9E7FFF7B0FFD6E7C9
:104B1000FFF7E4FDD3E770B505460C460B7803F0CC
:104B20006003202B08D0402B06D02BB1FFF7D6FD19
:104B300000231E46304670BD95F89C32013B022B87
:104B40002AD82179012906D921462846FFF7C6FD32
:104B500000231E46EEE72846FFF7ABFC034668B984
:104B600000F1AE02284655F82220916889B1C5F8B7
:104B7000D432936821469847064601E003231E4637
:104B8000E388002BD6D1002ED4D1284600F07CF942
:104B9000D0E703231E46F3E721462846FFF79EFD94
:104BA00000231E46C6E72DE9F04106460D468B88D8
:104BB000DAB217460C7804F06004202C08D0402CA0
:104BC00006D0DCB1FFF78AFD00242046BDE8F08165
:104BD00039463046FFF76FFC0446002840F0FE805F
:104BE0003046C6F8D44204F1AE0356F823309B6831
:104BF000002BEAD0294698470446E6E74A789046D3
:104C0000012A30D0032A04D0002A6AD0FFF766FDBB
:104C1000DBE790F89C32DAB2022B04D0032A12D0E0
:104C2000FFF75CFDD1E73946002F18BF802F06D073
:104C3000FBF769FF80213046FBF765FFC5E7294692
:104C4000FFF74CFDC1E74B882BB9002F18BF802F11
:104C500001D0CB881BB1304600F016F9B5E73946D4
:104C6000FBF751FFF7E790F89C22D1B2022A05D05A
:104C7000032913D02946FFF731FDA6E73946002F57
:104C800018BF802F06D0FBF73EFF80213046FBF790
:104C90003AFF9AE72946FFF721FD96E76A88002A3E
:104CA00093D113F07F0F18D1304600F0EDF839465C
:104CB0003046FFF700FC0346002886D13046C6F890
:104CC000D43203F1AE0256F822209268002A00F096
:104CD000878029469047044677E73946FBF71BFF54
:104CE000E2E790F89C22D1B2022A06D003292BD009
:104CF0002946FFF7F3FC444667E7002F18BF802FD3
:104D000014D113F0800F16D103F07F0303EB83035C
:104D1000990001F5A87101440431002301F80E3F08
:104D20000222304600F081F844464EE72946FFF75C
:104D3000D5FC444649E703F07F0303EB8303990066
:104D4000103101440431E8E759B2002921DB03F0B6
:104D50000F0202EB820200EB820292F8634134B34D
:104D6000002928DB03F07F0303EB83039C0004F599
:104D7000A87434440434802F18BF002F24D100239A
:104D8000A373022204F10E01304600F04EF84446AF
:104D90001BE703F00F0202EB820200EB820292F8A3
:104DA0002340002CDCD12946FFF798FC0DE729466B
:104DB000FFF794FC09E703F07F0303EB83039C00F8
:104DC000103434440434D6E739463046FBF754FEF9
:104DD00010B10123A373D4E7A073D2E70024F4E653
:104DE0001C46F2E600B370B50D4616460446FFF7C2
:104DF00057FC01304300B3F5007F06D89BB23380E7
:104E00002B7003236B7002230AE04FF40073F6E764
:104E1000EA5401345A1CD2B20021A9540233DBB245
:104E20002278002AF4D170BD704708B513460222DB
:104E3000C0F894224361416283610A460021FBF776
:104E40007AFE002008BD08B513460A460021FBF78C
:104E500072FE002008BD08B513460322C0F8942254
:104E6000C0F85431C0F86411C0F858310A46002126
:104E7000FBF769FE002008BD08B513460A4600216D
:104E8000FBF761FE002008BD08B50422C0F894229B
:104E900000231A461946FBF74EFE002008BD08B550
:104EA0000522C0F8942200231A461946FBF74BFE50
:104EB000002008BD10B5D0F8D43203F1B00250F88C
:104EC00022408CB100EB820043687BB194F8000271
:104ED000FF280DD09B6894F8012221469847FF23B4
:104EE00084F80032002010BD0320FCE71846FAE7E2
:104EF0000020F8E70A23038000487047F4000020F0
:104F0000F8B507460F4D82212846FFF7AAFB064653
:104F100001212846FFF7A5FB044681212846FFF71B
:104F2000A0FB0EB11022B2711CB1402222710022EE
:104F3000627118B1402202710022427143233B800A
:104F40000048F8BD78000020F8B507460F4D8221D3
:104F50002846FFF786FB064601212846FFF781FB1E
:104F6000044681212846FFF77CFB0EB11022B27166
:104F70001CB1402222710022627118B140220271DC
:104F80000022427143233B800048F8BD7800002096
:104F9000F8B507460F4D82212846FFF762FB06460B
:104FA00001212846FFF75DFB044681212846FFF7D3
:104FB00058FB0EB11022B2711CB1002222710222E4
:104FC000627118B1002202710222427143233B80B8
:104FD0000048F8BD7800002038B5D0F8D432B0339E
:104FE00050F8235095B10446FBF75CFDC5F80C0260
:104FF000D4F8D432B03304EB83046368DB6805F57E
:105000000371D5F804029847002038BD0320FCE75F
:1050100010B5D0F8C8E2D0F8D432B03350F823C07D
:10502000BCF1000F2FD001F00F0303EB830200EB64
:105030008202526952B103EBC3040EEB840EDEF818
:105040001CE0B2FBFEF40EFB142292B10023CCF85C
:105050001432D0F8D432B03300EB830043681B69BC
:105060009BB10A460CF50471DCF808029847002051
:1050700010BD03EB830300EB83035A611346FBF778
:105080005AFD0020F4E70320F2E71846F0E7F0B5F8
:1050900083B0D0F8D43203F1B00250F8227000226D
:1050A0008DF80720ADF80420002F76D004460D4679
:1050B000097811F0600633D0202E67D1EA882AB330
:1050C00011F0800F07D16B7887F80032EA883F2A09
:1050D00013D8D2B212E0B03300EB83035B689B6855
:1050E000394668789847EA88072A28BF0722394650
:1050F0002046FFF79AFE00264CE0402287F8012266
:1051000039462046FFF7A7FE002643E0B03300EB08
:1051100083035B689B68294668789847002639E0D6
:105120006F780A2F23D008D897B1012F32D02946A3
:105130002046FFF7D3FA03262CE00B2FF7D190F887
:105140009C32032B26D02946FFF7C8FA032621E01C
:1051500090F89C32032B04D02946FFF7BFFA0326B0
:1051600018E0022201A9FFF760FE3E4612E090F827
:105170009C32032B04D02946FFF7B0FA032609E03E
:1051800001220DF10701FFF750FE03E02946FFF76A
:10519000A5FA0326304603B0F0BD0326FAE738B57A
:1051A00004468121FBF7A7FC002584F83750012134
:1051B0002046FBF7A0FC84F8775182212046FBF7BC
:1051C0009AFC84F84B506564D4F8D43203F1B002F1
:1051D00054F822209AB1B03304EB83035B685B6818
:1051E0009847D4F8D432B03354F82300FBF764FC6A
:1051F000D4F8D432B03344F82350C4F8BC52002061
:1052000038BD70B504464FF40770FBF751FC002819
:1052100049D005464FF40772002100F047FAD4F850
:10522000D432B03344F82350C4F8BC52237C002B52
:1052300040D14FF40073022281212046FBF750FC3D
:10524000012684F837604FF400730222314620466D
:10525000FBF746FC84F8776110236364082303227C
:1052600082212046FBF73CFC012384F84B300026CA
:10527000C5F80462D4F8D432B03304EB83035B681E
:105280001B689847C5F81462C5F81862D5F804225F
:105290005AB3257C15BB4FF4007301212046FBF760
:1052A00052FC284670BDD4F8D432B03344F8230001
:1052B0000225F6E74023022281212046FBF710FC5D
:1052C000012684F837604023022231462046FBF74E
:1052D00007FC84F8776110236364BFE74023012152
:1052E0002046FBF730FC0025DBE70225D9E739B182
:1052F000D0F8D432B03300EB830041600020704717
:1053000003207047D0F8D432B03350F823302BB19B
:10531000C3F80812C3F8102200207047032070471A
:10532000D0F8D432B03350F823301BB1C3F8041294
:10533000002070470320704710B5D0F8D432B03346
:1053400050F8232092B1047C44B94FF40073D2F892
:1053500004220121FBF7F7FB204610BD4023D2F8C1
:1053600004220121FBF7EFFB0024F5E70324F3E718
:1053700008B503460D4A0E490E48006840B10D4875
:1053800000680344521A934208D80A4A136008BDC1
:105390000848DFF824C0C0F800C0F0E700F0D4F9F6
:1053A0000C2303604FF0FF30F1E700BF0000022044
:1053B00000040000601D0020B01E002070B50E46E5
:1053C0001546002406E0AFF30080314601F8010BDA
:1053D00001340E46AC42F6DB284670BD70B50C4673
:1053E0001646002504E014F8010BAFF300800135E8
:1053F000B542F8DB304670BD4FF0FF3070474FF4D8
:1054000000534B6000207047012070470020704718
:10541000DFF838D0FEF70EFFFEF7A4FE0C480D496A
:105420000D4A002302E0D458C4500433C4188C42FF
:10543000F9D30A4A0A4C002301E013600432A24265
:10544000FBD300F087F9FBF7A9F8FEE70000022084
:10545000000000205C010020306400085C01002096
:10546000B01E0020FEE70000002310B50446C0E98E
:105470000033C0E90433836081814366C281836164
:10548000194608225C3000F011F90D4B63620D4B98
:10549000A3620D4BE3620D4B23630D4B24629C42D0
:1054A00006D003F16802944202D0D0339C4205D169
:1054B00004F15800BDE8104000F070B910BD00BF05
:1054C00025560008475600087F560008A5560008D4
:1054D000641D0020024A0349034800F06BB800BF76
:1054E00000010020496000081001002041680C4BB9
:1054F000994210B5044601D000F0A6FDA168094B01
:10550000994202D0204600F09FFDE168064B994287
:1055100004D02046BDE8104000F096BD10BD00BF8D
:10552000641D0020CC1D0020341E002010B50A4B45
:105530000A4A1A600A4800220421FFF795FF094829
:1055400001220921FFF790FFBDE810400648022222
:105550001221FFF789BF00BF9C1E0020D554000810
:10556000641D0020CC1D0020341E0020014800F0E6
:1055700016B900BFA51E0020014800F011B900BFF8
:10558000A51E002010B50446FFF7F0FF236A1BB1EB
:10559000BDE81040FFF7F0BF044B2362044B1B68CB
:1055A000002BF5D1FFF7C2FFF2E700BFED54000872
:1055B0009C1E00202DE9F8438046894614460026AB
:1055C000D4E90175013F05D52468002CF8D1304697
:1055D000BDE8F883AB89012B07D9B5F90E3001334B
:1055E00003D029464046C84706436835EAE700002D
:1055F0000FB407B5064904AB086853F8042B81685B
:10560000019300F0EDF903B05DF804EB04B07047CE
:105610000C010020024B01461868826800F03CBD76
:105620000C01002010B50C46B1F90E1000F068F81E
:105630000028ABBF636DA3891B1823F48053ACBF54
:105640006365A38110BD2DE9F0411F468B89DB0501
:1056500005460C46164605D5B1F90E100223002268
:1056600000F03CF8A389B4F90E1023F48053A38111
:1056700032463B462846BDE8F04100F053B810B52D
:105680000C46B1F90E1000F029F8B4F90C30421CA8
:105690000BBF23F4805343F48053A381A38118BF2D
:1056A000606510BDB1F90E1000F008B80244034661
:1056B000934200D1704703F8011BF9E738B5064C57
:1056C0000023054608462360FFF796FE431C02D1DF
:1056D000236803B12B6038BDA01E002038B5074CED
:1056E000054608461146002222601A46FFF78EFE44
:1056F000431C02D1236803B12B6038BDA01E0020DB
:1057000038B5074C054608461146002222601A4665
:10571000FFF754FE431C02D1236803B12B6038BD50
:10572000A01E002038B5074C054608461146002249
:1057300022601A46FFF752FE431C02D1236803B1D0
:105740002B6038BDA01E0020014B1868704700BFB9
:105750000C01002070B50D4B0D4C00261D1BB6EB47
:10576000A50F09D100F0EEFD0A4C0B4B00261D1BC6
:10577000B6EBA50F05D170BD54F8043B9847013630
:10578000EDE754F8043B98470136F1E72864000838
:1057900028640008286400082C64000870477047DB
:1057A0007047000037B5002944D051F8043C0190FF
:1057B000002BA1F10404B8BFE41800F0DDF81E4A84
:1057C0000198136833B96360146003B0BDE83040DA
:1057D00000F0D8B8A34208D9256861198B4201BFEF
:1057E00019685B6849192160EDE71A465B680BB1DF
:1057F000A342FAD911685518A5420BD12468214457
:105800005418A3421160E0D11C685B6853600C44DB
:105810001460DAE702D90C230360D6E72568611922
:105820008B4204BF19685B68636004BF491921603B
:105830005460CAE703B030BDAC1E002070B50F4CF9
:105840000E462168054611B900F0ECFC2060314697
:10585000284600F0E7FC431C03D14FF0FF342046FC
:1058600070BDC41C24F00304A042F8D0211A2846BD
:1058700000F0D8FC0130F2D1EFE700BFA81E0020F5
:105880002DE9F843CD1C25F0030508350C2D38BF54
:105890000C25002D064601DBA94204D90C233360F8
:1058A0000020BDE8F883334F00F066F83B681C46E3
:1058B0003CBB29463046FFF7C1FF431C044656D186
:1058C0003C68A046B8F1000F40D1002C49D02368B5
:1058D0004146304604EB030900F0A4FC814540D169
:1058E00021686D1A29463046FFF7A8FF013038D0ED
:1058F00023682B4423603B685A685ABBC7F8008072
:105900000EE02268521B1ED40B2A16D96119A3423D
:10591000256018BF5960636808BF396062514B60E9
:10592000304600F02FF804F10B00231D20F0070093
:10593000C21A1CBF1B1AA350B3E76268A3420CBF74
:105940003A605A60ECE723466468B1E74446D8F809
:105950000480B7E71A465B68A342FBD1002353607B
:10596000DEE70C233360304600F00CF898E7056062
:10597000D6E700BFAC1E00200148FFF710BF00BFF4
:10598000A41E00200148FFF70BBF00BFA41E00208B
:105990009368013B002B10B4936007DA9469A3422B
:1059A00001DB0A2902D110BC00F0AABB1368581C05
:1059B00010601970084610BC7047F8B506460F46CF
:1059C0001446D518AC4201D1002007E014F8011BA1
:1059D0003A463046FFF7DCFF431CF3D1F8BD000028
:1059E0002DE9F04706469CB00D4614461F4618B1F7
:1059F000036A0BB9FFF7C6FD6B6ED90705D4AB89F7
:105A00009A0502D4A86DFFF7CAFEAB891B0701D522
:105A10002B699BB92946304600F0B0FB70B16B6E24
:105A2000DE0704D54FF0FF301CB0BDE8F087AB892E
:105A30009C05F7D4A86DFFF7B3FEF3E700230993A5
:105A400020238DF82930039730236A4F8DF82A30B0
:105A50004FF0010823461A7899461AB1252A03F116
:105A60000103F8D1B9EB040A0BD05346224629466C
:105A70003046FFF7A2FF013000F0A380099A52449C
:105A8000099299F80030002B00F09B8000224FF023
:105A9000FF33CDE9053209F10109049207928DF82F
:105AA00053201A924C46052214F8011B5148FAF76C
:105AB0000FFC049AD0B9D00644BF20238DF8533090
:105AC000110744BF2B238DF8533099F800302A2B4F
:105AD00013D007994B4600204FF00A0C1A78303A41
